{
  "_format": "hh-sol-artifact-1",
  "contractName": "OnePieceMint",
  "sourceName": "contracts/OnePieceMint.sol",
  "abi": [
    {
      "inputs": [
        {
          "internalType": "address",
          "name": "vrfCoordinatorV2Address",
          "type": "address"
        },
        {
          "internalType": "uint256",
          "name": "subscriptionId",
          "type": "uint256"
        },
        {
          "internalType": "bytes32",
          "name": "subscriptionKeyHash",
          "type": "bytes32"
        },
        {
          "internalType": "uint32",
          "name": "callbackGasLimit",
          "type": "uint32"
        }
      ],
      "stateMutability": "nonpayable",
      "type": "constructor"
    },
    {
      "inputs": [
        {
          "internalType": "address",
          "name": "have",
          "type": "address"
        },
        {
          "internalType": "address",
          "name": "want",
          "type": "address"
        }
      ],
      "name": "OnlyCoordinatorCanFulfill",
      "type": "error"
    },
    {
      "inputs": [
        {
          "internalType": "address",
          "name": "have",
          "type": "address"
        },
        {
          "internalType": "address",
          "name": "owner",
          "type": "address"
        },
        {
          "internalType": "address",
          "name": "coordinator",
          "type": "address"
        }
      ],
      "name": "OnlyOwnerOrCoordinator",
      "type": "error"
    },
    {
      "inputs": [],
      "name": "ZeroAddress",
      "type": "error"
    },
    {
      "anonymous": false,
      "inputs": [
        {
          "indexed": true,
          "internalType": "address",
          "name": "owner",
          "type": "address"
        },
        {
          "indexed": true,
          "internalType": "address",
          "name": "approved",
          "type": "address"
        },
        {
          "indexed": true,
          "internalType": "uint256",
          "name": "tokenId",
          "type": "uint256"
        }
      ],
      "name": "Approval",
      "type": "event"
    },
    {
      "anonymous": false,
      "inputs": [
        {
          "indexed": true,
          "internalType": "address",
          "name": "owner",
          "type": "address"
        },
        {
          "indexed": true,
          "internalType": "address",
          "name": "operator",
          "type": "address"
        },
        {
          "indexed": false,
          "internalType": "bool",
          "name": "approved",
          "type": "bool"
        }
      ],
      "name": "ApprovalForAll",
      "type": "event"
    },
    {
      "anonymous": false,
      "inputs": [
        {
          "indexed": false,
          "internalType": "uint256",
          "name": "_fromTokenId",
          "type": "uint256"
        },
        {
          "indexed": false,
          "internalType": "uint256",
          "name": "_toTokenId",
          "type": "uint256"
        }
      ],
      "name": "BatchMetadataUpdate",
      "type": "event"
    },
    {
      "anonymous": false,
      "inputs": [
        {
          "indexed": false,
          "internalType": "uint256",
          "name": "catId",
          "type": "uint256"
        }
      ],
      "name": "CatTraitDetermined",
      "type": "event"
    },
    {
      "anonymous": false,
      "inputs": [
        {
          "indexed": false,
          "internalType": "uint256",
          "name": "_tokenId",
          "type": "uint256"
        }
      ],
      "name": "MetadataUpdate",
      "type": "event"
    },
    {
      "anonymous": false,
      "inputs": [
        {
          "indexed": false,
          "internalType": "uint256",
          "name": "catId",
          "type": "uint256"
        },
        {
          "indexed": false,
          "internalType": "address",
          "name": "minter",
          "type": "address"
        }
      ],
      "name": "NftMinted",
      "type": "event"
    },
    {
      "anonymous": false,
      "inputs": [
        {
          "indexed": false,
          "internalType": "uint256",
          "name": "requestId",
          "type": "uint256"
        },
        {
          "indexed": false,
          "internalType": "address",
          "name": "requester",
          "type": "address"
        }
      ],
      "name": "NftRequested",
      "type": "event"
    },
    {
      "anonymous": false,
      "inputs": [
        {
          "indexed": true,
          "internalType": "address",
          "name": "from",
          "type": "address"
        },
        {
          "indexed": true,
          "internalType": "address",
          "name": "to",
          "type": "address"
        }
      ],
      "name": "OwnershipTransferRequested",
      "type": "event"
    },
    {
      "anonymous": false,
      "inputs": [
        {
          "indexed": true,
          "internalType": "address",
          "name": "from",
          "type": "address"
        },
        {
          "indexed": true,
          "internalType": "address",
          "name": "to",
          "type": "address"
        }
      ],
      "name": "OwnershipTransferred",
      "type": "event"
    },
    {
      "anonymous": false,
      "inputs": [
        {
          "indexed": true,
          "internalType": "address",
          "name": "from",
          "type": "address"
        },
        {
          "indexed": true,
          "internalType": "address",
          "name": "to",
          "type": "address"
        },
        {
          "indexed": true,
          "internalType": "uint256",
          "name": "tokenId",
          "type": "uint256"
        }
      ],
      "name": "Transfer",
      "type": "event"
    },
    {
      "inputs": [],
      "name": "acceptOwnership",
      "outputs": [],
      "stateMutability": "nonpayable",
      "type": "function"
    },
    {
      "inputs": [
        {
          "internalType": "address",
          "name": "to",
          "type": "address"
        },
        {
          "internalType": "uint256",
          "name": "tokenId",
          "type": "uint256"
        }
      ],
      "name": "approve",
      "outputs": [],
      "stateMutability": "nonpayable",
      "type": "function"
    },
    {
      "inputs": [
        {
          "internalType": "address",
          "name": "owner",
          "type": "address"
        }
      ],
      "name": "balanceOf",
      "outputs": [
        {
          "internalType": "uint256",
          "name": "",
          "type": "uint256"
        }
      ],
      "stateMutability": "view",
      "type": "function"
    },
    {
      "inputs": [
        {
          "internalType": "uint256",
          "name": "tokenId",
          "type": "uint256"
        }
      ],
      "name": "getApproved",
      "outputs": [
        {
          "internalType": "address",
          "name": "",
          "type": "address"
        }
      ],
      "stateMutability": "view",
      "type": "function"
    },
    {
      "inputs": [
        {
          "internalType": "address",
          "name": "owner",
          "type": "address"
        },
        {
          "internalType": "address",
          "name": "operator",
          "type": "address"
        }
      ],
      "name": "isApprovedForAll",
      "outputs": [
        {
          "internalType": "bool",
          "name": "",
          "type": "bool"
        }
      ],
      "stateMutability": "view",
      "type": "function"
    },
    {
      "inputs": [],
      "name": "name",
      "outputs": [
        {
          "internalType": "string",
          "name": "",
          "type": "string"
        }
      ],
      "stateMutability": "view",
      "type": "function"
    },
    {
      "inputs": [],
      "name": "owner",
      "outputs": [
        {
          "internalType": "address",
          "name": "",
          "type": "address"
        }
      ],
      "stateMutability": "view",
      "type": "function"
    },
    {
      "inputs": [
        {
          "internalType": "uint256",
          "name": "tokenId",
          "type": "uint256"
        }
      ],
      "name": "ownerOf",
      "outputs": [
        {
          "internalType": "address",
          "name": "",
          "type": "address"
        }
      ],
      "stateMutability": "view",
      "type": "function"
    },
    {
      "inputs": [
        {
          "internalType": "uint256",
          "name": "requestId",
          "type": "uint256"
        },
        {
          "internalType": "uint256[]",
          "name": "randomWords",
          "type": "uint256[]"
        }
      ],
      "name": "rawFulfillRandomWords",
      "outputs": [],
      "stateMutability": "nonpayable",
      "type": "function"
    },
    {
      "inputs": [
        {
          "internalType": "uint256[5]",
          "name": "answers",
          "type": "uint256[5]"
        }
      ],
      "name": "requestNFT",
      "outputs": [],
      "stateMutability": "nonpayable",
      "type": "function"
    },
    {
      "inputs": [
        {
          "internalType": "address",
          "name": "",
          "type": "address"
        }
      ],
      "name": "s_userToAdoptedCat",
      "outputs": [
        {
          "internalType": "uint256",
          "name": "",
          "type": "uint256"
        }
      ],
      "stateMutability": "view",
      "type": "function"
    },
    {
      "inputs": [],
      "name": "s_vrfCoordinator",
      "outputs": [
        {
          "internalType": "contract IVRFCoordinatorV2Plus",
          "name": "",
          "type": "address"
        }
      ],
      "stateMutability": "view",
      "type": "function"
    },
    {
      "inputs": [
        {
          "internalType": "address",
          "name": "from",
          "type": "address"
        },
        {
          "internalType": "address",
          "name": "to",
          "type": "address"
        },
        {
          "internalType": "uint256",
          "name": "tokenId",
          "type": "uint256"
        }
      ],
      "name": "safeTransferFrom",
      "outputs": [],
      "stateMutability": "nonpayable",
      "type": "function"
    },
    {
      "inputs": [
        {
          "internalType": "address",
          "name": "from",
          "type": "address"
        },
        {
          "internalType": "address",
          "name": "to",
          "type": "address"
        },
        {
          "internalType": "uint256",
          "name": "tokenId",
          "type": "uint256"
        },
        {
          "internalType": "bytes",
          "name": "data",
          "type": "bytes"
        }
      ],
      "name": "safeTransferFrom",
      "outputs": [],
      "stateMutability": "nonpayable",
      "type": "function"
    },
    {
      "inputs": [
        {
          "internalType": "address",
          "name": "operator",
          "type": "address"
        },
        {
          "internalType": "bool",
          "name": "approved",
          "type": "bool"
        }
      ],
      "name": "setApprovalForAll",
      "outputs": [],
      "stateMutability": "nonpayable",
      "type": "function"
    },
    {
      "inputs": [
        {
          "internalType": "address",
          "name": "_vrfCoordinator",
          "type": "address"
        }
      ],
      "name": "setCoordinator",
      "outputs": [],
      "stateMutability": "nonpayable",
      "type": "function"
    },
    {
      "inputs": [
        {
          "internalType": "bytes4",
          "name": "interfaceId",
          "type": "bytes4"
        }
      ],
      "name": "supportsInterface",
      "outputs": [
        {
          "internalType": "bool",
          "name": "",
          "type": "bool"
        }
      ],
      "stateMutability": "view",
      "type": "function"
    },
    {
      "inputs": [],
      "name": "symbol",
      "outputs": [
        {
          "internalType": "string",
          "name": "",
          "type": "string"
        }
      ],
      "stateMutability": "view",
      "type": "function"
    },
    {
      "inputs": [
        {
          "internalType": "uint256",
          "name": "tokenId",
          "type": "uint256"
        }
      ],
      "name": "tokenURI",
      "outputs": [
        {
          "internalType": "string",
          "name": "",
          "type": "string"
        }
      ],
      "stateMutability": "view",
      "type": "function"
    },
    {
      "inputs": [
        {
          "internalType": "address",
          "name": "from",
          "type": "address"
        },
        {
          "internalType": "address",
          "name": "to",
          "type": "address"
        },
        {
          "internalType": "uint256",
          "name": "tokenId",
          "type": "uint256"
        }
      ],
      "name": "transferFrom",
      "outputs": [],
      "stateMutability": "nonpayable",
      "type": "function"
    },
    {
      "inputs": [
        {
          "internalType": "address",
          "name": "to",
          "type": "address"
        }
      ],
      "name": "transferOwnership",
      "outputs": [],
      "stateMutability": "nonpayable",
      "type": "function"
    },
    {
      "inputs": [
        {
          "internalType": "address",
          "name": "",
          "type": "address"
        }
      ],
      "name": "userHasAdoptedCat",
      "outputs": [
        {
          "internalType": "bool",
          "name": "",
          "type": "bool"
        }
      ],
      "stateMutability": "view",
      "type": "function"
    }
  ],
  "bytecode": "0x61024060405260666101a081815261010091829190620029d66101c03981526020016040518060a0016040528060668152602001620029706066913981526020016040518060a001604052806066815260200162002aa26066913981526020016040518060a001604052806066815260200162002b086066913981526020016040518060a001604052806066815260200162002a3c606691399052620000aa90600a906005620002bb565b50348015620000b857600080fd5b5060405162002b6e38038062002b6e833981016040819052620000db9162000392565b604080518082018252600c81526b13db99541a5958d94813919560a21b6020808301919091528251808401909352600383526227a82760e91b9083015290853380600081620001715760405162461bcd60e51b815260206004820152601860248201527f43616e6e6f7420736574206f776e657220746f207a65726f000000000000000060448201526064015b60405180910390fd5b600080546001600160a01b0319166001600160a01b0384811691909117909155811615620001a457620001a48162000210565b5050600280546001600160a01b0319166001600160a01b039390931692909217909155506003620001d683826200049b565b506004620001e582826200049b565b50506002546001600160a01b03166080525060a09290925260c05263ffffffff1660e0525062000567565b336001600160a01b038216036200026a5760405162461bcd60e51b815260206004820152601760248201527f43616e6e6f74207472616e7366657220746f2073656c66000000000000000000604482015260640162000168565b600180546001600160a01b0319166001600160a01b0383811691821790925560008054604051929316917fed8889f560326eb138920d842192f0eb3dd22b4f139c87a2c57538e05bae12789190a350565b82805482825590600052602060002090810192821562000306579160200282015b82811115620003065782518290620002f590826200049b565b5091602001919060010190620002dc565b506200031492915062000318565b5090565b80821115620003145760006200032f828262000339565b5060010162000318565b50805462000347906200040c565b6000825580601f1062000358575050565b601f0160209004906000526020600020908101906200037891906200037b565b50565b5b808211156200031457600081556001016200037c565b60008060008060808587031215620003a957600080fd5b84516001600160a01b0381168114620003c157600080fd5b809450506020850151925060408501519150606085015163ffffffff81168114620003eb57600080fd5b939692955090935050565b634e487b7160e01b600052604160045260246000fd5b600181811c908216806200042157607f821691505b6020821081036200044257634e487b7160e01b600052602260045260246000fd5b50919050565b601f8211156200049657600081815260208120601f850160051c81016020861015620004715750805b601f850160051c820191505b8181101562000492578281556001016200047d565b5050505b505050565b81516001600160401b03811115620004b757620004b7620003f6565b620004cf81620004c884546200040c565b8462000448565b602080601f831160018114620005075760008415620004ee5750858301515b600019600386901b1c1916600185901b17855562000492565b600085815260208120601f198616915b82811015620005385788860151825594840194600190910190840162000517565b5085821015620005575787850151600019600388901b60f8161c191681555b5050505050600190811b01905550565b60805160a05160c05160e0516123d26200059e60003960006109d601526000610988015260006109ab0152600050506123d26000f3fe608060405234801561001057600080fd5b50600436106101825760003560e01c80638da5cb5b116100d8578063a362fc8f1161008c578063e985e9c511610066578063e985e9c514610324578063f2fde38b14610360578063f4d7ce291461037357600080fd5b8063a362fc8f146102eb578063b88d4fde146102fe578063c87b56dd1461031157600080fd5b806395d89b41116100bd57806395d89b41146102bd5780639eccacf6146102c5578063a22cb465146102d857600080fd5b80638da5cb5b146102995780638ea98117146102aa57600080fd5b8063225f953c1161013a5780636352211e116101145780636352211e1461026b57806370a082311461027e57806379ba50971461029157600080fd5b8063225f953c1461021757806323b872dd1461024557806342842e0e1461025857600080fd5b8063081812fc1161016b578063081812fc146101c4578063095ea7b3146101ef5780631fe543e31461020457600080fd5b806301ffc9a71461018757806306fdde03146101af575b600080fd5b61019a610195366004611d00565b610396565b60405190151581526020015b60405180910390f35b6101b76103da565b6040516101a69190611d6d565b6101d76101d2366004611d80565b61046c565b6040516001600160a01b0390911681526020016101a6565b6102026101fd366004611db5565b610493565b005b610202610212366004611e26565b6105e7565b610237610225366004611ed8565b600f6020526000908152604090205481565b6040519081526020016101a6565b610202610253366004611ef3565b61064e565b610202610266366004611ef3565b6106c5565b6101d7610279366004611d80565b6106e0565b61023761028c366004611ed8565b610745565b6102026107df565b6000546001600160a01b03166101d7565b6102026102b8366004611ed8565b610890565b6101b7610942565b6002546101d7906001600160a01b031681565b6102026102e6366004611f2f565b610951565b6102026102f9366004611f6b565b61095c565b61020261030c366004611fe9565b610af7565b6101b761031f366004611d80565b610b75565b61019a6103323660046120a9565b6001600160a01b03918216600090815260086020908152604080832093909416825291909152205460ff1690565b61020261036e366004611ed8565b610c85565b61019a610381366004611ed8565b600e6020526000908152604090205460ff1681565b60006001600160e01b031982167f490649060000000000000000000000000000000000000000000000000000000014806103d457506103d482610c99565b92915050565b6060600380546103e9906120dc565b80601f0160208091040260200160405190810160405280929190818152602001828054610415906120dc565b80156104625780601f1061043757610100808354040283529160200191610462565b820191906000526020600020905b81548152906001019060200180831161044557829003601f168201915b5050505050905090565b600061047782610d34565b506000908152600760205260409020546001600160a01b031690565b600061049e826106e0565b9050806001600160a01b0316836001600160a01b03160361052c5760405162461bcd60e51b815260206004820152602160248201527f4552433732313a20617070726f76616c20746f2063757272656e74206f776e6560448201527f720000000000000000000000000000000000000000000000000000000000000060648201526084015b60405180910390fd5b336001600160a01b038216148061056657506001600160a01b038116600090815260086020908152604080832033845290915290205460ff165b6105d85760405162461bcd60e51b815260206004820152603d60248201527f4552433732313a20617070726f76652063616c6c6572206973206e6f7420746f60448201527f6b656e206f776e6572206f7220617070726f76656420666f7220616c6c0000006064820152608401610523565b6105e28383610d98565b505050565b6002546001600160a01b03163314610640576002546040517f1cf993f40000000000000000000000000000000000000000000000000000000081523360048201526001600160a01b039091166024820152604401610523565b61064a8282610e06565b5050565b6106583382610e8a565b6106ba5760405162461bcd60e51b815260206004820152602d60248201527f4552433732313a2063616c6c6572206973206e6f7420746f6b656e206f776e6560448201526c1c881bdc88185c1c1c9bdd9959609a1b6064820152608401610523565b6105e2838383610f08565b6105e283838360405180602001604052806000815250610af7565b6000818152600560205260408120546001600160a01b0316806103d45760405162461bcd60e51b815260206004820152601860248201527f4552433732313a20696e76616c696420746f6b656e20494400000000000000006044820152606401610523565b60006001600160a01b0382166107c35760405162461bcd60e51b815260206004820152602960248201527f4552433732313a2061646472657373207a65726f206973206e6f74206120766160448201527f6c6964206f776e657200000000000000000000000000000000000000000000006064820152608401610523565b506001600160a01b031660009081526006602052604090205490565b6001546001600160a01b031633146108395760405162461bcd60e51b815260206004820152601660248201527f4d7573742062652070726f706f736564206f776e6572000000000000000000006044820152606401610523565b60008054336001600160a01b0319808316821784556001805490911690556040516001600160a01b0390921692909183917f8be0079c531659141344cd1fd0a4f28419497f9722a3daafe3b4186f6b6457e091a350565b6000546001600160a01b031633148015906108b657506002546001600160a01b03163314155b1561092057336108ce6000546001600160a01b031690565b6002546040517f061db9c10000000000000000000000000000000000000000000000000000000081526001600160a01b0393841660048201529183166024830152919091166044820152606401610523565b600280546001600160a01b0319166001600160a01b0392909216919091179055565b6060600480546103e9906120dc565b61064a33838361110e565b610965816111dc565b336000908152600d6020908152604080832093909355600254835160c0810185527f000000000000000000000000000000000000000000000000000000000000000081527f0000000000000000000000000000000000000000000000000000000000000000818401526003818601527f000000000000000000000000000000000000000000000000000000000000000063ffffffff16606082015260016080820152845192830190945282825291926001600160a01b0390921691639b1c385e9160a0820190610a3490611277565b8152506040518263ffffffff1660e01b8152600401610a539190612116565b6020604051808303816000875af1158015610a72573d6000803e3d6000fd5b505050506040513d601f19601f82011682018060405250810190610a969190612173565b6000818152600c602090815260409182902080546001600160a01b031916339081179091558251848152918201529192507ff873236e6cc0ecc5be1a9a35c95ee5b8d1ac4cc7bfef0cc5060391d6cc98e26b91015b60405180910390a15050565b610b013383610e8a565b610b635760405162461bcd60e51b815260206004820152602d60248201527f4552433732313a2063616c6c6572206973206e6f7420746f6b656e206f776e6560448201526c1c881bdc88185c1c1c9bdd9959609a1b6064820152608401610523565b610b6f848484846112fd565b50505050565b6060610b8082610d34565b60008281526009602052604081208054610b99906120dc565b80601f0160208091040260200160405190810160405280929190818152602001828054610bc5906120dc565b8015610c125780601f10610be757610100808354040283529160200191610c12565b820191906000526020600020905b815481529060010190602001808311610bf557829003601f168201915b505050505090506000610c3060408051602081019091526000815290565b90508051600003610c42575092915050565b815115610c74578082604051602001610c5c92919061218c565b60405160208183030381529060405292505050919050565b610c7d8461137b565b949350505050565b610c8d6113ef565b610c968161144b565b50565b60006001600160e01b031982167f80ac58cd000000000000000000000000000000000000000000000000000000001480610cfc57506001600160e01b031982167f5b5e139f00000000000000000000000000000000000000000000000000000000145b806103d457507f01ffc9a7000000000000000000000000000000000000000000000000000000006001600160e01b03198316146103d4565b6000818152600560205260409020546001600160a01b0316610c965760405162461bcd60e51b815260206004820152601860248201527f4552433732313a20696e76616c696420746f6b656e20494400000000000000006044820152606401610523565b600081815260076020526040902080546001600160a01b0319166001600160a01b0384169081179091558190610dcd826106e0565b6001600160a01b03167f8c5be1e5ebec7d5bd14f71427d1e84f3dd0314c0f7b2291e5b200ac8c7c3b92560405160405180910390a45050565b6000828152600c60209081526040808320546001600160a01b0316808452600d90925282205483519192909184908290610e4257610e426121bb565b602002602001015190506000600582610e5b91906121d1565b905060006005610e6b8386612209565b610e7591906121d1565b9050610e8185826114f4565b50505050505050565b600080610e96836106e0565b9050806001600160a01b0316846001600160a01b03161480610edd57506001600160a01b0380821660009081526008602090815260408083209388168352929052205460ff165b80610c7d5750836001600160a01b0316610ef68461046c565b6001600160a01b031614949350505050565b826001600160a01b0316610f1b826106e0565b6001600160a01b031614610f7f5760405162461bcd60e51b815260206004820152602560248201527f4552433732313a207472616e736665722066726f6d20696e636f72726563742060448201526437bbb732b960d91b6064820152608401610523565b6001600160a01b038216610ffa5760405162461bcd60e51b8152602060048201526024808201527f4552433732313a207472616e7366657220746f20746865207a65726f2061646460448201527f72657373000000000000000000000000000000000000000000000000000000006064820152608401610523565b61100783838360016116af565b826001600160a01b031661101a826106e0565b6001600160a01b03161461107e5760405162461bcd60e51b815260206004820152602560248201527f4552433732313a207472616e736665722066726f6d20696e636f72726563742060448201526437bbb732b960d91b6064820152608401610523565b600081815260076020908152604080832080546001600160a01b03199081169091556001600160a01b0387811680865260068552838620805460001901905590871680865283862080546001019055868652600590945282852080549092168417909155905184937fddf252ad1be2c89b69c2b068fc378daa952ba7f163c4a11628f55a4df523b3ef91a4505050565b816001600160a01b0316836001600160a01b03160361116f5760405162461bcd60e51b815260206004820152601960248201527f4552433732313a20617070726f766520746f2063616c6c6572000000000000006044820152606401610523565b6001600160a01b03838116600081815260086020908152604080832094871680845294825291829020805460ff191686151590811790915591519182527f17307eab39ab6107e8899845ad3d59bd9653f200f220920489ca2b5937696c31910160405180910390a3505050565b600080805b600581101561121f578381600581106111fc576111fc6121bb565b602002015161120b9083612209565b9150806112178161221c565b9150506111e1565b5061122b6005826121d1565b611236906001612209565b90507f5a01e46de2b6a11ec46f4fa0f50f1fa2fe3952815688a420cf8b0b0bed678a358160405161126991815260200190565b60405180910390a192915050565b60607f92fd13387c7fe7befbc38d303d6468778fb9731bc4583f17d92989c6fcfdeaaa826040516024016112b091511515815260200190565b60408051601f198184030181529190526020810180517bffffffffffffffffffffffffffffffffffffffffffffffffffffffff166001600160e01b03199093169290921790915292915050565b611308848484610f08565b61131484848484611718565b610b6f5760405162461bcd60e51b815260206004820152603260248201527f4552433732313a207472616e7366657220746f206e6f6e20455243373231526560448201527131b2b4bb32b91034b6b83632b6b2b73a32b960711b6064820152608401610523565b606061138682610d34565b600061139d60408051602081019091526000815290565b905060008151116113bd57604051806020016040528060008152506113e8565b806113c784611864565b6040516020016113d892919061218c565b6040516020818303038152906040525b9392505050565b6000546001600160a01b031633146114495760405162461bcd60e51b815260206004820152601660248201527f4f6e6c792063616c6c61626c65206279206f776e6572000000000000000000006044820152606401610523565b565b336001600160a01b038216036114a35760405162461bcd60e51b815260206004820152601760248201527f43616e6e6f74207472616e7366657220746f2073656c660000000000000000006044820152606401610523565b600180546001600160a01b0319166001600160a01b0383811691821790925560008054604051929316917fed8889f560326eb138920d842192f0eb3dd22b4f139c87a2c57538e05bae12789190a350565b6001600160a01b0382166000908152600e602052604090205460ff161561155d5760405162461bcd60e51b815260206004820152601d60248201527f596f7527766520616c72656164792061646f70746564206120636174210000006044820152606401610523565b600b5461156a8382611904565b61161981600a8481548110611581576115816121bb565b906000526020600020018054611596906120dc565b80601f01602080910402602001604051908101604052809291908181526020018280546115c2906120dc565b801561160f5780601f106115e45761010080835404028352916020019161160f565b820191906000526020600020905b8154815290600101906020018083116115f257829003601f168201915b505050505061191e565b6001600160a01b0383166000908152600f60205260408120839055600b805460019290611647908490612209565b90915550506001600160a01b0383166000818152600e6020908152604091829020805460ff191660011790558151858152908101929092527f769eff512f395b679667e0062a0e31dad5d22dbc7e6b87f16c3de7e85e663460910160405180910390a1505050565b6001600160a01b03841615806116cc57506001600160a01b038316155b610b6f5760405162461bcd60e51b815260206004820152601860248201527f457272212054686973206973206e6f7420616c6c6f77656400000000000000006044820152606401610523565b60006001600160a01b0384163b1561185957604051630a85bd0160e11b81526001600160a01b0385169063150b7a029061175c903390899088908890600401612235565b6020604051808303816000875af1925050508015611797575060408051601f3d908101601f1916820190925261179491810190612271565b60015b61183f573d8080156117c5576040519150601f19603f3d011682016040523d82523d6000602084013e6117ca565b606091505b5080516000036118375760405162461bcd60e51b815260206004820152603260248201527f4552433732313a207472616e7366657220746f206e6f6e20455243373231526560448201527131b2b4bb32b91034b6b83632b6b2b73a32b960711b6064820152608401610523565b805181602001fd5b6001600160e01b031916630a85bd0160e11b149050610c7d565b506001949350505050565b60606000611871836119f1565b600101905060008167ffffffffffffffff81111561189157611891611ddf565b6040519080825280601f01601f1916602001820160405280156118bb576020820181803683370190505b5090508181016020015b600019017f3031323334353637383961626364656600000000000000000000000000000000600a86061a8153600a85049450846118c557509392505050565b61064a828260405180602001604052806000815250611ad3565b6000828152600560205260409020546001600160a01b03166119a85760405162461bcd60e51b815260206004820152602e60248201527f45524337323155524953746f726167653a2055524920736574206f66206e6f6e60448201527f6578697374656e7420746f6b656e0000000000000000000000000000000000006064820152608401610523565b60008281526009602052604090206119c082826122dc565b506040518281527ff8e1a15aba9398e019f0b49df1a4fde98ee17ae345cb5f6b5e2c27f5033e8ce790602001610aeb565b6000807a184f03e93ff9f4daa797ed6e38ed64bf6a1f0100000000000000008310611a3a577a184f03e93ff9f4daa797ed6e38ed64bf6a1f010000000000000000830492506040015b6d04ee2d6d415b85acef81000000008310611a66576d04ee2d6d415b85acef8100000000830492506020015b662386f26fc100008310611a8457662386f26fc10000830492506010015b6305f5e1008310611a9c576305f5e100830492506008015b6127108310611ab057612710830492506004015b60648310611ac2576064830492506002015b600a83106103d45760010192915050565b611add8383611b51565b611aea6000848484611718565b6105e25760405162461bcd60e51b815260206004820152603260248201527f4552433732313a207472616e7366657220746f206e6f6e20455243373231526560448201527131b2b4bb32b91034b6b83632b6b2b73a32b960711b6064820152608401610523565b6001600160a01b038216611ba75760405162461bcd60e51b815260206004820181905260248201527f4552433732313a206d696e7420746f20746865207a65726f20616464726573736044820152606401610523565b6000818152600560205260409020546001600160a01b031615611c0c5760405162461bcd60e51b815260206004820152601c60248201527f4552433732313a20746f6b656e20616c7265616479206d696e746564000000006044820152606401610523565b611c1a6000838360016116af565b6000818152600560205260409020546001600160a01b031615611c7f5760405162461bcd60e51b815260206004820152601c60248201527f4552433732313a20746f6b656e20616c7265616479206d696e746564000000006044820152606401610523565b6001600160a01b038216600081815260066020908152604080832080546001019055848352600590915280822080546001600160a01b0319168417905551839291907fddf252ad1be2c89b69c2b068fc378daa952ba7f163c4a11628f55a4df523b3ef908290a45050565b6001600160e01b031981168114610c9657600080fd5b600060208284031215611d1257600080fd5b81356113e881611cea565b60005b83811015611d38578181015183820152602001611d20565b50506000910152565b60008151808452611d59816020860160208601611d1d565b601f01601f19169290920160200192915050565b6020815260006113e86020830184611d41565b600060208284031215611d9257600080fd5b5035919050565b80356001600160a01b0381168114611db057600080fd5b919050565b60008060408385031215611dc857600080fd5b611dd183611d99565b946020939093013593505050565b634e487b7160e01b600052604160045260246000fd5b604051601f8201601f1916810167ffffffffffffffff81118282101715611e1e57611e1e611ddf565b604052919050565b60008060408385031215611e3957600080fd5b8235915060208084013567ffffffffffffffff80821115611e5957600080fd5b818601915086601f830112611e6d57600080fd5b813581811115611e7f57611e7f611ddf565b8060051b9150611e90848301611df5565b8181529183018401918481019089841115611eaa57600080fd5b938501935b83851015611ec857843582529385019390850190611eaf565b8096505050505050509250929050565b600060208284031215611eea57600080fd5b6113e882611d99565b600080600060608486031215611f0857600080fd5b611f1184611d99565b9250611f1f60208501611d99565b9150604084013590509250925092565b60008060408385031215611f4257600080fd5b611f4b83611d99565b915060208301358015158114611f6057600080fd5b809150509250929050565b600060a08284031215611f7d57600080fd5b82601f830112611f8c57600080fd5b60405160a0810181811067ffffffffffffffff82111715611faf57611faf611ddf565b6040528060a0840185811115611fc457600080fd5b845b81811015611fde578035835260209283019201611fc6565b509195945050505050565b60008060008060808587031215611fff57600080fd5b61200885611d99565b93506020612017818701611d99565b935060408601359250606086013567ffffffffffffffff8082111561203b57600080fd5b818801915088601f83011261204f57600080fd5b81358181111561206157612061611ddf565b612073601f8201601f19168501611df5565b9150808252898482850101111561208957600080fd5b808484018584013760008482840101525080935050505092959194509250565b600080604083850312156120bc57600080fd5b6120c583611d99565b91506120d360208401611d99565b90509250929050565b600181811c908216806120f057607f821691505b60208210810361211057634e487b7160e01b600052602260045260246000fd5b50919050565b60208152815160208201526020820151604082015261ffff60408301511660608201526000606083015163ffffffff80821660808501528060808601511660a0850152505060a083015160c080840152610c7d60e0840182611d41565b60006020828403121561218557600080fd5b5051919050565b6000835161219e818460208801611d1d565b8351908301906121b2818360208801611d1d565b01949350505050565b634e487b7160e01b600052603260045260246000fd5b6000826121ee57634e487b7160e01b600052601260045260246000fd5b500690565b634e487b7160e01b600052601160045260246000fd5b808201808211156103d4576103d46121f3565b60006001820161222e5761222e6121f3565b5060010190565b60006001600160a01b038087168352808616602084015250836040830152608060608301526122676080830184611d41565b9695505050505050565b60006020828403121561228357600080fd5b81516113e881611cea565b601f8211156105e257600081815260208120601f850160051c810160208610156122b55750805b601f850160051c820191505b818110156122d4578281556001016122c1565b505050505050565b815167ffffffffffffffff8111156122f6576122f6611ddf565b61230a8161230484546120dc565b8461228e565b602080601f83116001811461233f57600084156123275750858301515b600019600386901b1c1916600185901b1785556122d4565b600085815260208120601f198616915b8281101561236e5788860151825594840194600190910190840161234f565b508582101561238c5787850151600019600388901b60f8161c191681555b5050505050600190811b0190555056fea26469706673582212208e37216c2e6d75f5f44851cf92d45e03a35f255d565bc36c15e39763e697d81c64736f6c6343000814003368747470733a2f2f636f72616c2d63617574696f75732d6d6173746f646f6e2d3736342e6d7970696e6174612e636c6f75642f697066732f516d5a664c324b6a75655367714c42536141554850716e314353684e546b4d4556474b513774626345317070396268747470733a2f2f636f72616c2d63617574696f75732d6d6173746f646f6e2d3736342e6d7970696e6174612e636c6f75642f697066732f516d586f4b4a594b58476d3748676753784a415955534875695a6755436b6e5a5558394e4879396d48716d38357468747470733a2f2f636f72616c2d63617574696f75732d6d6173746f646f6e2d3736342e6d7970696e6174612e636c6f75642f697066732f516d52466b356d744a5463485562674374677879745778337a5675356237763334664661314638706d645362454368747470733a2f2f636f72616c2d63617574696f75732d6d6173746f646f6e2d3736342e6d7970696e6174612e636c6f75642f697066732f516d59336f71324731447169367a5a743946705046373742467439756d634552765a734e6550414c79555678373568747470733a2f2f636f72616c2d63617574696f75732d6d6173746f646f6e2d3736342e6d7970696e6174612e636c6f75642f697066732f516d6236624d5a4d3958726957434577375478364434336a64364762736a45796d5363526355544b61557a556356",
  "linkReferences": {},
  "deployedLinkReferences": {}
}